{
  "_format": "hh-sol-artifact-1",
  "contractName": "AIModelMarketplace",
  "sourceName": "contracts/AIModelMarketplace.sol",
  "abi": [
    {
      "inputs": [],
      "stateMutability": "nonpayable",
      "type": "constructor"
    },
    {
      "anonymous": false,
      "inputs": [
        {
          "indexed": false,
          "internalType": "uint256",
          "name": "modelId",
          "type": "uint256"
        },
        {
          "indexed": false,
          "internalType": "string",
          "name": "name",
          "type": "string"
        },
        {
          "indexed": false,
          "internalType": "string",
          "name": "description",
          "type": "string"
        },
        {
          "indexed": false,
          "internalType": "uint256",
          "name": "price",
          "type": "uint256"
        },
        {
          "indexed": false,
          "internalType": "address",
          "name": "creator",
          "type": "address"
        }
      ],
      "name": "ModelListed",
      "type": "event"
    },
    {
      "anonymous": false,
      "inputs": [
        {
          "indexed": false,
          "internalType": "uint256",
          "name": "modelId",
          "type": "uint256"
        },
        {
          "indexed": false,
          "internalType": "address",
          "name": "buyer",
          "type": "address"
        }
      ],
      "name": "ModelPurchased",
      "type": "event"
    },
    {
      "anonymous": false,
      "inputs": [
        {
          "indexed": false,
          "internalType": "uint256",
          "name": "modelId",
          "type": "uint256"
        },
        {
          "indexed": false,
          "internalType": "uint256",
          "name": "rating",
          "type": "uint256"
        }
      ],
      "name": "ModelRated",
      "type": "event"
    },
    {
      "inputs": [],
      "name": "getModelCount",
      "outputs": [
        {
          "internalType": "uint256",
          "name": "",
          "type": "uint256"
        }
      ],
      "stateMutability": "view",
      "type": "function"
    },
    {
      "inputs": [
        {
          "internalType": "uint256",
          "name": "modelId",
          "type": "uint256"
        }
      ],
      "name": "getModelDetails",
      "outputs": [
        {
          "components": [
            {
              "internalType": "string",
              "name": "name",
              "type": "string"
            },
            {
              "internalType": "string",
              "name": "description",
              "type": "string"
            },
            {
              "internalType": "uint256",
              "name": "price",
              "type": "uint256"
            },
            {
              "internalType": "address",
              "name": "creator",
              "type": "address"
            },
            {
              "internalType": "uint256",
              "name": "rating",
              "type": "uint256"
            },
            {
              "internalType": "uint256",
              "name": "ratingCount",
              "type": "uint256"
            }
          ],
          "internalType": "struct AIModelMarketplace.Model",
          "name": "",
          "type": "tuple"
        }
      ],
      "stateMutability": "view",
      "type": "function"
    },
    {
      "inputs": [
        {
          "internalType": "string",
          "name": "name",
          "type": "string"
        },
        {
          "internalType": "string",
          "name": "description",
          "type": "string"
        },
        {
          "internalType": "uint256",
          "name": "price",
          "type": "uint256"
        }
      ],
      "name": "listModel",
      "outputs": [],
      "stateMutability": "nonpayable",
      "type": "function"
    },
    {
      "inputs": [],
      "name": "modelCount",
      "outputs": [
        {
          "internalType": "uint256",
          "name": "",
          "type": "uint256"
        }
      ],
      "stateMutability": "view",
      "type": "function"
    },
    {
      "inputs": [
        {
          "internalType": "uint256",
          "name": "",
          "type": "uint256"
        }
      ],
      "name": "models",
      "outputs": [
        {
          "internalType": "string",
          "name": "name",
          "type": "string"
        },
        {
          "internalType": "string",
          "name": "description",
          "type": "string"
        },
        {
          "internalType": "uint256",
          "name": "price",
          "type": "uint256"
        },
        {
          "internalType": "address",
          "name": "creator",
          "type": "address"
        },
        {
          "internalType": "uint256",
          "name": "rating",
          "type": "uint256"
        },
        {
          "internalType": "uint256",
          "name": "ratingCount",
          "type": "uint256"
        }
      ],
      "stateMutability": "view",
      "type": "function"
    },
    {
      "inputs": [],
      "name": "owner",
      "outputs": [
        {
          "internalType": "address",
          "name": "",
          "type": "address"
        }
      ],
      "stateMutability": "view",
      "type": "function"
    },
    {
      "inputs": [
        {
          "internalType": "uint256",
          "name": "modelId",
          "type": "uint256"
        }
      ],
      "name": "purchaseModel",
      "outputs": [],
      "stateMutability": "payable",
      "type": "function"
    },
    {
      "inputs": [
        {
          "internalType": "uint256",
          "name": "modelId",
          "type": "uint256"
        },
        {
          "internalType": "uint256",
          "name": "rating",
          "type": "uint256"
        }
      ],
      "name": "rateModel",
      "outputs": [],
      "stateMutability": "nonpayable",
      "type": "function"
    },
    {
      "inputs": [],
      "name": "withdrawFunds",
      "outputs": [],
      "stateMutability": "nonpayable",
      "type": "function"
    }
  ],
  "bytecode": "0x608060405234801561001057600080fd5b50336000806101000a81548173ffffffffffffffffffffffffffffffffffffffff021916908373ffffffffffffffffffffffffffffffffffffffff16021790555061137b806100606000396000f3fe6080604052600436106100865760003560e01c80636a030ca9116100595780636a030ca9146101335780638da5cb5b1461017557806399c64cc8146101a0578063c6a645fe146101c9578063dc746862146101f457610086565b806312ee1c0e1461008b57806324600fc3146100b457806331fc042f146100cb5780634989dbb014610108575b600080fd5b34801561009757600080fd5b506100b260048036038101906100ad9190610b3d565b610210565b005b3480156100c057600080fd5b506100c961036a565b005b3480156100d757600080fd5b506100f260048036038101906100ed9190610bbc565b610461565b6040516100ff9190610f09565b60405180910390f35b34801561011457600080fd5b5061011d610626565b60405161012a9190610f2b565b60405180910390f35b34801561013f57600080fd5b5061015a60048036038101906101559190610bbc565b610630565b60405161016c96959493929190610e3a565b60405180910390f35b34801561018157600080fd5b5061018a61079c565b6040516101979190610e1f565b60405180910390f35b3480156101ac57600080fd5b506101c760048036038101906101c29190610be5565b6107c0565b005b3480156101d557600080fd5b506101de6108c6565b6040516101eb9190610f2b565b60405180910390f35b61020e60048036038101906102099190610bbc565b6108cc565b005b6002600081548092919061022390611218565b91905055506040518060c001604052808481526020018381526020018281526020013373ffffffffffffffffffffffffffffffffffffffff168152602001600081526020016000815250600160006002548152602001908152602001600020600082015181600001908051906020019061029e9291906109d1565b5060208201518160010190805190602001906102bb9291906109d1565b506040820151816002015560608201518160030160006101000a81548173ffffffffffffffffffffffffffffffffffffffff021916908373ffffffffffffffffffffffffffffffffffffffff1602179055506080820151816004015560a082015181600501559050507f988447004164f28081936f22661fc3898dda52a0210617c848e707ce976307bb6002548484843360405161035d959493929190610f6f565b60405180910390a1505050565b60008054906101000a900473ffffffffffffffffffffffffffffffffffffffff1673ffffffffffffffffffffffffffffffffffffffff163373ffffffffffffffffffffffffffffffffffffffff16146103f8576040517f08c379a00000000000000000000000000000000000000000000000000000000081526004016103ef90610ee9565b60405180910390fd5b60008054906101000a900473ffffffffffffffffffffffffffffffffffffffff1673ffffffffffffffffffffffffffffffffffffffff166108fc479081150290604051600060405180830381858888f1935050505015801561045e573d6000803e3d6000fd5b50565b610469610a57565b600160008381526020019081526020016000206040518060c0016040529081600082018054610497906111e6565b80601f01602080910402602001604051908101604052809291908181526020018280546104c3906111e6565b80156105105780601f106104e557610100808354040283529160200191610510565b820191906000526020600020905b8154815290600101906020018083116104f357829003601f168201915b50505050508152602001600182018054610529906111e6565b80601f0160208091040260200160405190810160405280929190818152602001828054610555906111e6565b80156105a25780601f10610577576101008083540402835291602001916105a2565b820191906000526020600020905b81548152906001019060200180831161058557829003601f168201915b50505050508152602001600282015481526020016003820160009054906101000a900473ffffffffffffffffffffffffffffffffffffffff1673ffffffffffffffffffffffffffffffffffffffff1673ffffffffffffffffffffffffffffffffffffffff168152602001600482015481526020016005820154815250509050919050565b6000600254905090565b6001602052806000526040600020600091509050806000018054610653906111e6565b80601f016020809104026020016040519081016040528092919081815260200182805461067f906111e6565b80156106cc5780601f106106a1576101008083540402835291602001916106cc565b820191906000526020600020905b8154815290600101906020018083116106af57829003601f168201915b5050505050908060010180546106e1906111e6565b80601f016020809104026020016040519081016040528092919081815260200182805461070d906111e6565b801561075a5780601f1061072f5761010080835404028352916020019161075a565b820191906000526020600020905b81548152906001019060200180831161073d57829003601f168201915b5050505050908060020154908060030160009054906101000a900473ffffffffffffffffffffffffffffffffffffffff16908060040154908060050154905086565b60008054906101000a900473ffffffffffffffffffffffffffffffffffffffff1681565b6000600160008481526020019081526020016000209050600182101580156107e9575060058211155b610828576040517f08c379a000000000000000000000000000000000000000000000000000000000815260040161081f90610ec9565b60405180910390fd5b600181600501546108399190611087565b828260050154836004015461084e919061110e565b6108589190611087565b61086291906110dd565b816004018190555080600501600081548092919061087f90611218565b91905055507f22d50015220e840933d526cc3b594dbedd20c002e62750dcf7e092d6eb2f8d708382600401546040516108b9929190610fd0565b60405180910390a1505050565b60025481565b600060016000838152602001908152602001600020905080600201543414610929576040517f08c379a000000000000000000000000000000000000000000000000000000000815260040161092090610ea9565b60405180910390fd5b8060030160009054906101000a900473ffffffffffffffffffffffffffffffffffffffff1673ffffffffffffffffffffffffffffffffffffffff166108fc349081150290604051600060405180830381858888f19350505050158015610993573d6000803e3d6000fd5b507fc8581808129c51c0416692a5ea1b58e080ae8f21e384eefe2f2dc85d231d12ba82336040516109c5929190610f46565b60405180910390a15050565b8280546109dd906111e6565b90600052602060002090601f0160209004810192826109ff5760008555610a46565b82601f10610a1857805160ff1916838001178555610a46565b82800160010185558215610a46579182015b82811115610a45578251825591602001919060010190610a2a565b5b509050610a539190610aa3565b5090565b6040518060c00160405280606081526020016060815260200160008152602001600073ffffffffffffffffffffffffffffffffffffffff16815260200160008152602001600081525090565b5b80821115610abc576000816000905550600101610aa4565b5090565b6000610ad3610ace8461102a565b610ff9565b905082815260208101848484011115610aeb57600080fd5b610af68482856111a4565b509392505050565b600082601f830112610b0f57600080fd5b8135610b1f848260208601610ac0565b91505092915050565b600081359050610b378161132e565b92915050565b600080600060608486031215610b5257600080fd5b600084013567ffffffffffffffff811115610b6c57600080fd5b610b7886828701610afe565b935050602084013567ffffffffffffffff811115610b9557600080fd5b610ba186828701610afe565b9250506040610bb286828701610b28565b9150509250925092565b600060208284031215610bce57600080fd5b6000610bdc84828501610b28565b91505092915050565b60008060408385031215610bf857600080fd5b6000610c0685828601610b28565b9250506020610c1785828601610b28565b9150509250929050565b610c2a81611168565b82525050565b610c3981611168565b82525050565b6000610c4a8261105a565b610c548185611065565b9350610c648185602086016111b3565b610c6d8161131d565b840191505092915050565b6000610c838261105a565b610c8d8185611076565b9350610c9d8185602086016111b3565b610ca68161131d565b840191505092915050565b6000610cbe600f83611076565b91507f496e636f727265637420707269636500000000000000000000000000000000006000830152602082019050919050565b6000610cfe601e83611076565b91507f526174696e67206d757374206265206265747765656e203120616e64203500006000830152602082019050919050565b6000610d3e601b83611076565b91507f4f6e6c7920746865206f776e65722063616e20776974686472617700000000006000830152602082019050919050565b600060c0830160008301518482036000860152610d8e8282610c3f565b91505060208301518482036020860152610da88282610c3f565b9150506040830151610dbd6040860182610e01565b506060830151610dd06060860182610c21565b506080830151610de36080860182610e01565b5060a0830151610df660a0860182610e01565b508091505092915050565b610e0a8161119a565b82525050565b610e198161119a565b82525050565b6000602082019050610e346000830184610c30565b92915050565b600060c0820190508181036000830152610e548189610c78565b90508181036020830152610e688188610c78565b9050610e776040830187610e10565b610e846060830186610c30565b610e916080830185610e10565b610e9e60a0830184610e10565b979650505050505050565b60006020820190508181036000830152610ec281610cb1565b9050919050565b60006020820190508181036000830152610ee281610cf1565b9050919050565b60006020820190508181036000830152610f0281610d31565b9050919050565b60006020820190508181036000830152610f238184610d71565b905092915050565b6000602082019050610f406000830184610e10565b92915050565b6000604082019050610f5b6000830185610e10565b610f686020830184610c30565b9392505050565b600060a082019050610f846000830188610e10565b8181036020830152610f968187610c78565b90508181036040830152610faa8186610c78565b9050610fb96060830185610e10565b610fc66080830184610c30565b9695505050505050565b6000604082019050610fe56000830185610e10565b610ff26020830184610e10565b9392505050565b6000604051905081810181811067ffffffffffffffff821117156110205761101f6112ee565b5b8060405250919050565b600067ffffffffffffffff821115611045576110446112ee565b5b601f19601f8301169050602081019050919050565b600081519050919050565b600082825260208201905092915050565b600082825260208201905092915050565b60006110928261119a565b915061109d8361119a565b9250827fffffffffffffffffffffffffffffffffffffffffffffffffffffffffffffffff038211156110d2576110d1611261565b5b828201905092915050565b60006110e88261119a565b91506110f38361119a565b92508261110357611102611290565b5b828204905092915050565b60006111198261119a565b91506111248361119a565b9250817fffffffffffffffffffffffffffffffffffffffffffffffffffffffffffffffff048311821515161561115d5761115c611261565b5b828202905092915050565b60006111738261117a565b9050919050565b600073ffffffffffffffffffffffffffffffffffffffff82169050919050565b6000819050919050565b82818337600083830152505050565b60005b838110156111d15780820151818401526020810190506111b6565b838111156111e0576000848401525b50505050565b600060028204905060018216806111fe57607f821691505b60208210811415611212576112116112bf565b5b50919050565b60006112238261119a565b91507fffffffffffffffffffffffffffffffffffffffffffffffffffffffffffffffff82141561125657611255611261565b5b600182019050919050565b7f4e487b7100000000000000000000000000000000000000000000000000000000600052601160045260246000fd5b7f4e487b7100000000000000000000000000000000000000000000000000000000600052601260045260246000fd5b7f4e487b7100000000000000000000000000000000000000000000000000000000600052602260045260246000fd5b7f4e487b7100000000000000000000000000000000000000000000000000000000600052604160045260246000fd5b6000601f19601f8301169050919050565b6113378161119a565b811461134257600080fd5b5056fea2646970667358221220fe66e2c5c9d3c20dfa4f0b7ba1924d49cae6443a859381c5c8ee60f9a820f36964736f6c63430008000033",
  "linkReferences": {},
  "deployedLinkReferences": {}
}